:100000000C9486000C94B51C0C94B51C0C94B51C77
:100010000C947F0E0C94B51C0C94B51C0C94B51C60
:100020000C94B51C0C94B51C0C94B51C0C94B51C0C
:100030000C94B51C0C94B51C0C94B51C0C94B51CFC
:100040000C94B51C0C94B51C0C94B2000C940C1CB4
:100050000C94B51C0C94C21A0C94B51C0C94B51CD1
:100060000C94B51C0C94B51C0C94B51C0C94B51CCC
:100070000C94B51C0C94B51C0C94B51C0C94DB189A
:100080000C94B51C0C9411170C94B51C0C94B51C55
:100090000C94B51C0C94B51C0C94B51C0C94B51C9C
:1000A0000C94B51C0C94B51C0C94B51C0C94B51C8C
:1000B0000C94B51C0C94B51C0C94B51C0C94B51C7C
:1000C0000C94B51C0C94B51C0C94B51C0C94B51C6C
:1000D0000C94FC170C94B51C0C945A160C94341800
:1000E0000C94B51C0C9497160C94691A0C94B51CBE
:1000F0000C94B51C0C946C180C94B51C0C94D41670
:10010000400058F08058F0590600396E11241FBE87
:10011000CFEFCDBFDFE7DEBFE0E0F1E041E019C0A7
:10012000B791A79137912791079107FD0EC097913D
:100130008791EF01F92FE82F0BBF07900D92A217BF
:10014000B307D9F7FE011BBE04C01D92A217B30767
:10015000E1F7EC30F40721F70E94DE150C94B000B3
:04016000F894FFCF41
:100164001F920F9200903F000F92112400903B00C9
:100174000F922F933F934F935F936F937F938F933C
:100184009F93AF93BF93EF93FF93CF93DF93CDB739
:10019400DEB72597CDBFDEBF80E499E0FC01818105
:1001A40088230CF0AAC080E499E0FC0183818823B1
:1001B4000CF057C0809142479091434720E439E0C6
:1001C400F90124818E53994BFC012083809142478D
:1001D40090914347019680934247909343472091DF
:1001E40042473091434780914447909145472817AF
:1001F4003907B8F10E94181589839A8389819A81F5
:10020400892B09F41895209144473091454782EC95
:1002140096E4CC01A0E8AA2FAC016A2F89819A81C7
:1002240009960E94B11B209144473091454789812A
:100234009A81FC01248335838091EE589091EF5884
:10024400FC01218189819A81FC0121831092444718
:1002540010924547109242471092434781E08093A1
:10026400C14680E499E0FC018381882F90E080748A
:100274009927892B09F4DFC080E499E020E4FC018C
:1002840023838091C7479091C84701968093C747BD
:100294009093C8472091C7473091C8478091C94778
:1002A4009091CA472817390768F480E499E02091AF
:1002B400C7473091C847295B384BF9012081FC01BD
:1002C4002483B9C08091EE589091EF580E947A1916
:1002D4001092EE581092EF581092C9471092CA47E4
:1002E4001092C7471092C84781E08093464780E048
:1002F40094E020E8FC0125839EC080E499E0FC01A1
:10030400818188230CF497C080E499E0FC01838107
:100314008D83809142479091434720E439E0F9016D
:1003240024818E53994BFC01208380914247909104
:100334004347019680934247909343472091424715
:100344003091434780914447909145472817390796
:10035400B8F10E9418158B839C838B819C81892B17
:1003640009F41895209144473091454782EC96E46E
:10037400CC01A0E8AA2FAC016A2F8B819C8109963D
:100384000E94B11B20914447309145478B819C8149
:10039400FC01248335838091EE589091EF58FC0141
:1003A40021818B819C81FC0121831092444710920E
:1003B4004547109242471092434781E08093C146DB
:1003C4008091C7479091C84701968093C7479093FF
:1003D400C8472091C7473091C8478091C947909139
:1003E400CA472817390768F480E499E02091C74781
:1003F4003091C847295B384BF9012081FC012483E3
:100404001AC08091EE589091EF580E947A19109278
:10041400EE581092EF581092C9471092CA471092A2
:10042400C7471092C84781E08093464780E094E034
:1004340020E8FC01258300002596CDBFDEBFDF91B7
:10044400CF91FF91EF91BF91AF919F918F917F9148
:100454006F915F914F913F912F910F9000923B00CC
:0C0464000F9000923F000F901F90189521
:10047000CF93DF93CDB7DEB72E97CDBFDEBF80E041
:1004800094E02FEFFC01268380E094E020E1FC0162
:10049000218380E094E020E2FC01228380E094E06C
:1004A00020E4FC01218380E094E020E8FC0121832A
:1004B00080EC94E020E4FC01258380EC94E020E4CF
:1004C000FC01218380EC94E020E4FC01268380E0A1
:1004D00090E0A0E2B1E489839A83AB83BC8320E0FF
:1004E00030E04AE754E469817A818B819C810E94E3
:1004F000AE1CDC01CB018D839E83AF83B88720E0E7
:1005000030E040E85FE36D817E818F8198850E94B5
:10051000A41C88232CF481E090E089879A873FC04F
:1005200020E03FEF4FE757E46D817E818F81988512
:100530000E94A91C18164CF520E030E040E251E47E
:1005400069817A818B819C810E94AE1CDC01CB0188
:10055000BC01CD010E943A1ADC01CB0189879A8740
:100560000FC084E690E08B879C878B859C850197E4
:10057000F1F78B879C8789859A85019789879A8768
:1005800089859A85892B69F714C06D817E818F8159
:1005900098850E943A1ADC01CB0189879A87898560
:1005A0009A858D879E878D859E850197F1F78D872A
:1005B0009E8780EC94E020E4FC01258380EE95E0AA
:1005C00020EE35E0F90124812C60FC01248380EECB
:1005D00095E020EE35E0F9012481FC01248380E4DC
:1005E00099E020E439E0F90120812062FC012083B8
:1005F00080E499E020E439E0F90120812F7EFC01BC
:10060000208380E499E020E439E0F90120812F7B08
:10061000FC01208380E499E020E439E0F9012181A4
:100620002F77FC01218380E499E020E439E0F9018F
:1006300021812B7FFC01218380E499E020E439E0D3
:10064000F90120812160FC01208380E094E020E812
:10065000FC01258380E499E020E439E0F901208160
:10066000FC01208380E499E020E439E0F901218154
:10067000FC01218380E499E020E439E0F901228142
:100680002160FC01228300002E96CDBFDEBFDF91EA
:04069000CF91089569
:10069400CF93DF93CDB7DEB7CF51D140CDBFDEBF0F
:1006A400FE01EE56FF4F8083CE018D569F4FFC0115
:1006B400408351836283CE018A569F4FFC0120837D
:1006C400CE018E569F4FFC018081882F90E0880FC9
:1006D400991F9C01220F331F220F331F820F931F78
:1006E40008968859994B89839A8389819A81FC0158
:1006F4002085CE0182579F4FFC01208389819A81F6
:10070400FC012185CE0182579F4FFC012183898101
:100714009A81FC0180858B8789819A81FC0181857E
:100724008C878D85877080638D878D858C7F8D8781
:100734008D8584608D87CE018A569F4FFC01808110
:10074400482F50E0CE018D569F4FFC01808191814E
:10075400A2819E012B5F3F4FF90139969A01AC01AA
:100764006A2FCF010E94B11BCE018A569F4FFC0114
:100774008081882F90E089879A87CE018A569F4F7F
:10078400FC018081882F90E003968F83988784E50D
:100794008E83CE0105960E94AC19CE0182579F4FDD
:1007A400FC012181CE0182579F4FFC018081622F81
:1007B4000E94F81B8B839C83CE018A569F4FFC01B9
:1007C4008081882F90E02B813C81820F931F8B8343
:1007D4009C838B819C8160E00E94101B282FCE019A
:1007E40080579F4FFC0120838B819C8161E00E9494
:1007F400101B282FCE0180579F4FFC0121839E019F
:1008040029563F4FAE0140575F4FCE018E569F4F42
:10081400FC016081C9010E94D90BCE0189569F4F0A
:1008240029E8FC01DE01159601900D922A95E1F765
:10083400CE0105960E94AC19892B91F0CE01805708
:100844009F4FFC01208189819A81FC012087CE0180
:1008540080579F4FFC01218189819A81FC01218766
:100864009E0129563F4FCE018E569F4F40E2FC0118
:100874006081C9010E94EB0ECE0189569F4F29E881
:10088400FC01DE01159601900D922A95E1F7CE0147
:1008940005960E94AC190000C15EDE4FCDBFDEBFDD
:0608A400DF91CF910895E1
:1008AA00EF92FF920F93CF93DF931F92CDB7DEB7EC
:1008BA001982F4C08981482F50E02EE831E0429F26
:1008CA00C001439F900D529F900D11248F5F9F4B43
:1008DA00FC018081882309F4DEC08981682F70E0D9
:1008EA008981482F50E02EE831E0429FC001439FA2
:1008FA00900D529F900D11248A5F9E4BFC0120811E
:10090A0031814EE851E0649FC001659F900D749F4C
:10091A00900D1124885F9E4BFC01208331838981CD
:10092A00482F50E02EE831E0429FC001439F900DCE
:10093A00529F900D1124885F9E4BFC01608171814A
:10094A008981482F50E02EE831E0429FC001439F41
:10095A00900D529F900D112404968050904CCC011A
:10096A00A0E8AA2F7C010A2F8981482F50E02EE89F
:10097A0031E0429FC001439F900D529F900D112478
:10098A008C579F4F8050904C9B01602FA7010E946B
:10099A00B11B8981482F50E02EE831E0429FC00107
:1009AA00439F900D529F900D11248A5F9E4BFC012C
:1009BA00108211828981482F50E02EE831E0429F4F
:1009CA00C001439F900D529F900D11248C5F9E4B46
:1009DA00FC01108211828981482F50E02EE831E013
:1009EA00429FC001439F900D529F900D11248F5F2B
:1009FA009F4BFC0110828981482F50E02EE831E09C
:100A0A00429FC001439F900D529F900D1124885F11
:100A1A009E4BFC01608171818981482F50E02EE84C
:100A2A0031E0429FC001439F900D529F900D1124C7
:100A3A008C579F4F8050904C0E949C15882359F1E7
:100A4A008981482F50E02EE831E0429FC001439F40
:100A5A00900D529F900D1124885F9E4BFC0180815E
:100A6A009181682F8981482F50E02EE831E0429F1A
:100A7A00C001439F900D529F900D11248C579F4F98
:100A8A008050904CCC01A0E8AA2F262FAC016A2FE7
:100A9A0089810E944A0389818F5F89838981843091
:100AAA0008F408CF00000F90DF91CF910F91FF90CB
:040ABA00EF9008951C
:100ABE00CF93DF93CDB7DEB7C653D140CDBFDEBFE8
:100ACE0080EC94E020E8FC01268380EC94E020E8A2
:100ADE00FC01218380EC94E020EC34E0F9012789BD
:100AEE002360FC01278B0E94E21B80EC8B8B88EA33
:100AFE008C8B83E08D8B8FE78E8B86E0E0E0F9E5C3
:100B0E00DE01579601900D928A95E1F780EC8D8F5C
:100B1E0088EA8E8F83E08F8F84E688A38FEF89A378
:100B2E008FEF8AA38CEF8BA31CA2CE014796CC012C
:100B3E00A0E8AA2FAC016A2FCE01059626E030E080
:100B4E000E94B11BCE014396CC01A0E8AA2F24E04F
:100B5E0030E0AC016A2FCE0101960E94B11BCE018E
:100B6E004D96CC01A0E8AA2FAC016A2FCE010B96B0
:100B7E0024E030E00E94B11BCE018196CC01A0E8AA
:100B8E00AA2FAC016A2FCE010F9624E030E00E940E
:100B9E00B11BCE0182559F4F2D813E814F815885CD
:100BAE0069857A850E94500CCE0182559F4F29E8A7
:100BBE00FC01DE01959601900D922A95E1F7CE018A
:100BCE0085960E94AC199E0122553F4F89819A81CC
:100BDE00AB81BC81AC01BD01C9010E94EE10CE01FA
:100BEE0082559F4F29E8FC01DE01959601900D92EA
:100BFE002A95E1F7CE0185960E94AC199E012255E9
:100C0E003F4F8B859C85AD85BE85AC01BD01C9016D
:100C1E000E944F11CE0182559F4F29E8FC01DE0143
:100C2E00959601900D922A95E1F7CE0185960E9438
:100C3E00AC199E0122553F4F8F859889A989BA8993
:100C4E00AC01BD01C9010E94B011CE0182559F4F6A
:100C5E0029E8FC01DE01959601900D922A95E1F7A7
:100C6E00CE0185960E94AC1981E0809338460E9491
:100C7E00CF120000CA5CDE4FCDBFDEBFDF91CF9139
:020C8E000895C7
:100C9000CF93DF93CDB7DEB780E494E024E0FC018E
:100CA000268380E494E028E0FC01268380E494E03D
:100CB0002DE0FC01218380E494E022E0FC0122830A
:100CC00080E298E021E433E0FC012087318780E274
:100CD00098E023E0FC01278380E298E020E238E0FE
:100CE000F90126812068FC01268380E298E020E259
:100CF00038E0F90126812064FC01268380E298E037
:100D000020ECFC01258380E298E020E238E0F90144
:100D100023852160FC01238780E294E024E0FC012C
:100D2000268380E294E028E0FC01268380E294E0C0
:100D30002DE0FC01218380E294E022E0FC0122838B
:100D400080E698E021E433E0FC012087318780E6EB
:100D500098E023E0FC01278380E698E020ECFC018A
:100D6000268380E698E020ECFC01258380E698E06D
:100D700020E638E0F90123852160FC01238780E823
:100D800094E024E0FC01268380E894E028E0FC0164
:100D9000268380E894E02DE0FC01218380E894E044
:100DA00022E0FC01228380E898E021E433E0FC01AA
:100DB0002087318780E898E023E0FC01278380E8E2
:100DC00098E020ECFC01268380E898E020ECFC0110
:100DD000258380E898E020E838E0F9012385216048
:100DE000FC01238780EC94E024E0FC01268380EC66
:100DF00094E028E0FC01268380EC94E02DE0FC01E7
:100E0000218380EC94E022E0FC01228380EA98E0D8
:100E100021E433E0FC012087318780EA98E023E079
:100E2000FC01278380EA98E020ECFC01268380EA1D
:100E300098E020ECFC01258380EA98E020EA38E085
:100E4000F90123852160FC0123870000DF91CF9108
:020E5000089503
:100E5200CF93DF93CDB7DEB7C152D140CDBFDEBF56
:100E62009E012A563F4FF9018083CE018A569F4F39
:100E7200FC018081883008F0B0C0CE0180579F4FBE
:100E820020ECFC012083CE0180579F4F28EAFC0111
:100E92002183CE0180579F4F23E0FC012283CE01A4
:100EA20080579F4F2DE6FC012383CE018C569F4F26
:100EB2002AE1FC012083CE018C569F4F2DE0FC01DC
:100EC2002183CE0180579F4FCC01A0E8AA2FAC010D
:100ED2006A2FCE0184579F4F24E030E00E94B11B5D
:100EE200CE018C569F4FCC01A0E8AA2FAC016A2FED
:100EF200CE0186579F4F22E030E00E94B11B9E0137
:100F020029563F4FCE0186579F4FFC018081918128
:100F1200AC0161E0C9010E94340DCE0189569F4F98
:100F220029E8FC01CE010196DC0101900D922A957F
:100F3200E1F7CE0101960E94AC19CE0189569F4F6E
:100F4200C05EDE4F88839983C052D140CE01845760
:100F52009F4FFC0180819181A281B3819C01AD01EF
:100F620061E0C05EDE4F88819981C052D1400E940B
:100F72006D0ACE0189569F4F29E8FC01CE010196E8
:100F8200DC0101900D922A95E1F7CE0101960E94B3
:100F9200AC19CE0189569F4F44E061E00E94EB0EEE
:100FA200CE0189569F4F29E8FC01CE010196DC0152
:100FB20001900D922A95E1F7CE0101960E94AC199B
:100FC200CE018A569F4FFC018081882F90E088597C
:100FD200994B23E0FC01208301C00000CF5DDE4F6E
:0A0FE200CDBFDEBFDF91CF9108956F
:100FEC00CF93DF9300D000D0CDB7DEB78C838C814C
:100FFC00482F50E02EE831E0429FC001439F900DF6
:10100C00529F900D11248050904C8A839B8319829F
:10101C008C81882F90E0880F991F8850974AFC018B
:10102C0080819181FC01808189838A819B81FC0173
:10103C008181882309F018958A819B8121E0FC012C
:10104C0022838981882354F489818F7789838A81CB
:10105C009B818C5F9E4FFC01108211828A819B8147
:10106C008C5F9E4FFC01808191812A813B81820F94
:10107C00931F04962981FC0120838A819B818C5FBC
:10108C009E4FFC01808191819C012F5F3F4F8A8193
:10109C009B818C5F9E4FFC01208331838A819B81D5
:1010AC008C5F9E4FFC0180819181029759F489815C
:1010BC00282F30E08A819B818A5F9E4FFC01208320
:1010CC00318336C08A819B818C5F9E4FFC0180816D
:1010DC009181039799F48A819B818A5F9E4FFC01D1
:1010EC008081918169810E94EA1A9C018A819B818D
:1010FC008A5F9E4FFC01208331831AC08A819B81B9
:10110C008A5F9E4FFC01208131818A819B818C5F9B
:10111C009E4FFC01808191812817390749F48A81FF
:10112C009B8121E0FC0121838A819B81FC0112823D
:0E113C0000002496CDBFDEBFDF91CF91089555
:10114A000F931F93CF93DF9300D01F92CDB7DEB7D3
:10115A008B838B81482F50E02EE831E0429FC001FB
:10116A00439F900D529F900D1124865F9E4F805091
:10117A00904C89839A838B81282F206889819A8150
:10118A00FC01208389819A810196FC011082898160
:10119A009A81029626E0FC01208389819A8103962E
:1011AA0020914D46FC01208389819A81049622E58B
:1011BA00FC01208389819A818C010B5F1F4F8981F1
:1011CA009A8165E070E00E94961AF80180838B810B
:1011DA00482F50E02EE831E0429FC001439F900D16
:1011EA00529F900D112484579E4B26E030E0FC015B
:1011FA00208331838B81482F50E02EE831E0429FD3
:10120A00C001439F900D529F900D112486579E4B0B
:10121A00FC011082118260E08B810E94120E61E053
:10122A008B810E94A50D8B81882F90E0880F991FD2
:10123A008051974AFC018081918129813A81F90183
:10124A002081FC0120838B81882F90E04EE851E0B9
:10125A00849F9001859F300D949F300D112426574D
:10126A003E4BF901208131812F5F3F4F6EE871E0DB
:10127A00869FA001879F500D969F500D1124CA0189
:10128A0086579E4BFC012083318300002396CDBFF5
:0C129A00DEBFDF91CF911F910F910895EE
:1012A600CF93DF93CDB7DEB72E97CDBFDEBF8D8749
:1012B6009E878D859E85FC01818189838981882F02
:1012C60090E08035910509F443C08135910569F0B8
:1012D600039709F070C08D859E85FC0184858A83FD
:1012E6006A8181E00E94471966C08D859E850996B0
:1012F6008B839C8380E896E48D839E8382E896E4C4
:101306008F8398878B819C81FC0123818D819E81AF
:10131600FC0120838D819E8101962B813C81F90100
:101326002481FC0120838B819C81FC0125818F8196
:101336009885FC0120838F81988501962B813C81BD
:10134600F9012681FC01208381E080937B4633C02E
:101356008D859E8509968B839C838CE796E4898789
:101366009A878EE796E48B879C878B819C81FC010C
:10137600238189859A85FC01208389859A85019632
:101386002B813C81F9012481FC0120838B819C8186
:10139600FC0125818B859C85FC0120838B859C85A2
:1013A60001962B813C81F9012681FC01208381E095
:1013B60080937A4600008D859E85FC01118200008F
:0C13C6002E96CDBFDEBFDF91CF910895C1
:1013D200CF93DF93CDB7DEB7C351D140CDBFDEBFD0
:1013E2009E0126573F4FF9018083CE0186579F4FBA
:1013F200FC018081883008F067C0CE0186579F4F7C
:10140200FC018081882F90E0880F991F9C01220F98
:10141200331F220F331F820F931F8059994BFC01F8
:10142200908181E089278823D9F09E0125573F4F7B
:10143200CE0186579F4FFC016081C9010E941112A3
:10144200CE0185579F4F29E8FC01CE010196DC01B0
:1014520001900D922A95E1F7CE0101960E94AC19F6
:10146200CE0186579F4FFC018081882F90E0880F24
:10147200991F9C01220F331F220F331F820F931FCC
:101482008F58994BFC01908181E089278823E9F0EC
:101492009E0125573F4FCE0186579F4FFC01608129
:1014A200C9010E947012CE0185579F4F29E8FC01A5
:1014B200CE010196DC0101900D922A95E1F7CE0151
:1014C20001960E94AC1901C00000CD5EDE4FCDBF77
:0814D200DEBFDF91CF91089508
:1014DA00CF93DF93CDB7DEB7C059D109CDBFDEBFF9
:1014EA00FE01E657FF4F80839183CE0184579F4FB9
:1014FA00FC016083CE0183579F4FFC012083318317
:10150A0042835383CE0184579F4FFC0180818830E8
:10151A0088F0CE0186579F4FFC018081918149E86E
:10152A009E012F5F3F4FF901DC0101900D924A9510
:10153A00E1F73FC01F828CE08887898587708862BF
:10154A00898789858C7F8987898584608987CE0187
:10155A0083579F4FFC0180818A87CE0183579F4F13
:10156A00FC0181818B87CE0183579F4FFC018281C9
:10157A008C87CE0183579F4FFC0183818D8784E03E
:10158A0090E08D839E8387E090E08B839C8381E447
:10159A008A83CE0186579F4FFC018081918149E859
:1015AA009E012F5F3F4FF901DC0101900D924A9590
:1015BA00E1F7CE0186579F4FFC0180819181C05788
:0C15CA00DF4FCDBFDEBFDF91CF91089551
:1015D600CF93DF9300D01F92CDB7DEB78B838B817D
:1015E600482F50E02EE831E0429FC001439F900D06
:1015F600529F900D11248050904C89839A83898143
:101606009A8186579E4FFC012081318189819A817A
:1016160084579E4FFC018081918128173907E0F09D
:1016260089819A8121E0FC01208360E08B810E9400
:10163600A50D61E08B810E94120E89819A818657E1
:101646009E4FFC011082118289819A8184579E4F98
:10165600FC01108211822CC08B81882F90E0880FAC
:10166600991F8051974AFC018081918129813A8195
:1016760026573E4FF9012081318149815A81240F35
:10168600351F265F3E4FF9012081FC0120838981A9
:101696009A8186579E4FFC01808191819C012F5F24
:1016A6003F4F89819A8186579E4FFC012083318363
:0E16B60000002396CDBFDEBFDF91CF910895D7
:1016C400CF93DF93CDB7DEB7CE58D109CDBFDEBF00
:1016D4009E0126573F4FF90180839183CE018457A1
:1016E4009F4FFC016083CE0183579F4FFC014083D1
:1016F4005183CE0184579F4FFC018081883088F04C
:10170400CE0186579F4FFC018081918149E89E015B
:101714002F5F3F4FF901DC0101900D924A95E1F7EB
:1017240039C01F8288E288878985877088628987A3
:1017340089858C7F8987898584608987CE018357D1
:101744009F4FFC0180819181FC0180818A87CE01B9
:1017540083579F4FFC0180819181FC0181818B879C
:1017640082E090E08D839E8385E090E08B839C8370
:1017740082E58A83CE0186579F4FFC018081918147
:1017840049E89E012F5F3F4FF901DC0101900D9262
:101794004A95E1F7CE0186579F4FFC0180819181E4
:0E17A400C257DF4FCDBFDEBFDF91CF9108955A
:1017B200CF93DF93CDB7DEB7CE58D109CDBFDEBF11
:1017C2009E0126573F4FF90180839183CE018457B2
:1017D2009F4FFC016083CE0183579F4FFC014083E2
:1017E2005183CE0184579F4FFC018081883088F05D
:1017F200CE0186579F4FFC018081918149E89E016D
:101802002F5F3F4FF901DC0101900D924A95E1F7FC
:1018120039C01F8284E288878985877088628987B8
:1018220089858C7F8987898584608987CE018357E2
:101832009F4FFC0180819181FC0180818A87CE01CA
:1018420083579F4FFC0180819181FC0181818B87AD
:1018520082E090E08D839E8385E090E08B839C8381
:1018620083E58A83CE0186579F4FFC018081918157
:1018720049E89E012F5F3F4FF901DC0101900D9273
:101882004A95E1F7CE0186579F4FFC0180819181F5
:0E189200C257DF4FCDBFDEBFDF91CF9108956B
:1018A000CF93DF93CDB7DEB7C159D109CDBFDEBF2E
:1018B000FE01E657FF4F80839183CE0184579F4FEF
:1018C000FC012083FC013183FC014283FC01538332
:1018D000FC016483FC0175831F8289E08887898508
:1018E0008770898789858C7F8987898584608987C6
:1018F000CE0184579F4FFC0180818A87CE01845797
:101900009F4FFC0181818B87CE0184579F4FFC0143
:1019100082818C87CE0184579F4FFC0183818D8704
:10192000CE0184579F4FFC0184818E87CE0184575E
:101930009F4FFC0185818F8786E090E08D839E8399
:1019400089E090E08B839C8382E28A83CE01865774
:101950009F4FFC018081918149E89E012F5F3F4F9D
:10196000F901DC0101900D924A95E1F7CE0186570D
:101970009F4FFC0180819181CF56DF4FCDBFDEBFED
:06198000DF91CF910895F4
:10198600CF93DF93CDB7DEB7CE58D109CDBFDEBF3B
:101996009E0126573F4FF90180839183CE018457DC
:1019A6009F4FFC016083CE0183579F4FFC0140830C
:1019B6005183CE0184579F4FFC018081883088F087
:1019C600CE0186579F4FFC018081918149E89E0197
:1019D6002F5F3F4FF901DC0101900D924A95E1F727
:1019E60033C01F8284E088878985877088628987EB
:1019F60089858C7F8987898584608987CE0183570D
:101A06009F4FFC0180818A87CE0183579F4FFC013F
:101A160081818B8782E090E08D839E8385E090E0D4
:101A26008B839C8380E48A83CE0186579F4FFC017B
:101A36008081918149E89E012F5F3F4FF901DC01CA
:101A460001900D924A95E1F7CE0186579F4FFC0112
:101A560080819181C257DF4FCDBFDEBFDF91CF912D
:021A66000895E1
:101A6800CF93DF93CDB7DEB7CE58D109CDBFDEBF58
:101A78009E0126573F4FF90180839183CE018457F9
:101A88009F4FFC016083CE0183579F4FFC01408329
:101A98005183CE0184579F4FFC018081883088F0A4
:101AA800CE0186579F4FFC018081918149E89E01B4
:101AB8002F5F3F4FF901DC0101900D924A95E1F744
:101AC80033C01F8280E1888789858770886289870B
:101AD80089858C7F8987898584608987CE0183572A
:101AE8009F4FFC0180818A87CE0183579F4FFC015D
:101AF80081818B8782E090E08D839E8385E090E0F2
:101B08008B839C8382E48A83CE0186579F4FFC0196
:101B18008081918149E89E012F5F3F4FF901DC01E7
:101B280001900D924A95E1F7CE0186579F4FFC012F
:101B380080819181C257DF4FCDBFDEBFDF91CF914A
:021B48000895FE
:101B4A00CF93DF9300D0CDB7DEB789836A838A81CA
:101B5A00882331F49A8181E08927882369F501C0B5
:101B6A0000008981882F90E08130910591F08230C0
:101B7A0091051CF4892B39F04BC08230910579F01C
:101B8A00039799F045C080E494E024E0FC012583A2
:101B9A0012C080E294E024E0FC0125830CC080E8B6
:101BAA0094E024E0FC01258306C080EC94E024E064
:101BBA00FC01258300002CC000008981882F90E059
:101BCA008130910591F0823091051CF4892B39F00E
:101BDA001FC08230910579F0039799F019C080E40B
:101BEA0094E024E0FC01268312C080E294E024E021
:101BFA00FC0126830CC080E894E024E0FC012683E3
:101C0A0006C080EC94E024E0FC012683000000007A
:0A1C1A000F900F90DF91CF91089515
:101C2400CF93DF9300D0CDB7DEB789836A838A81EF
:101C3400882331F49A8181E08927882369F501C0DA
:101C440000008981882F90E08130910591F08230E5
:101C540091051CF4892B39F04BC08230910579F041
:101C6400039799F045C080E494E028E0FC012683C2
:101C740012C080E294E028E0FC0126830CC080E8D6
:101C840094E028E0FC01268306C080EC94E028E080
:101C9400FC01268300002CC000008981882F90E07D
:101CA4008130910591F0823091051CF4892B39F033
:101CB4001FC08230910579F0039799F019C080E430
:101CC40094E028E0FC01258312C080E294E028E03F
:101CD400FC0125830CC080E894E028E0FC01258306
:101CE40006C080EC94E028E0FC012583000000009D
:0A1CF4000F900F90DF91CF9108953B
:101CFE001F920F9200903F000F92112400903B0014
:101D0E000F922F933F934F935F938F939F93EF93E6
:101D1E00FF93CF93DF931F92CDB7DEB7000080E421
:101D2E0091E0FC0181818823D1F780E491E0FC01F0
:101D3E0081898823A1F780E491E020E431E0F90164
:101D4E0023892160FC01238B000080E491E0FC01DB
:101D5E0081818823D1F780E491E0FC018189882379
:101D6E00A1F781E08093394610927B46198214C008
:101D7E008981482F50E02EE831E0429FC001439FF9
:101D8E00900D529F900D11248D5F9F4B21E0FC0111
:101D9E00208389818F5F89838981843048F3000095
:101DAE000F90DF91CF91FF91EF919F918F915F9166
:101DBE004F913F912F910F9000923B000F90009208
:081DCE003F000F901F901895D3
:101DD600CF93DF93CDB7DEB7CD58D109CDBFDEBFE8
:101DE6009E0126573F4FF90180839183CE01845788
:101DF6009F4FFC016083CE0183579F4FFC014083B8
:101E0600CE0184579F4FFC018081883088F0CE0137
:101E160086579F4FFC018081918149E89E012F5F83
:101E26003F4FF901DC0101900D924A95E1F72DC073
:101E36001F8281E08887898587708862898789857E
:101E46008C7F8987898584608987CE0183579F4FD8
:101E5600FC0180818A8781E090E08D839E8384E007
:101E660090E08B839C838DE18A83CE0186579F4FBA
:101E7600FC018081918149E89E012F5F3F4FF90166
:101E8600DC0101900D924A95E1F7CE0186579F4FEE
:101E9600FC0180819181C357DF4FCDBFDEBFDF914B
:041EA600CF9108953B
:101EAA000FC00E94821C38F00E94891C20F09523E2
:101EBA0011F00C949E1C0C94B21C11240C947C1CE2
:101ECA000E94581B70F3959FC1F3950F50E0551F60
:101EDA00629FF001729FBB27F00DB11D639FAA2775
:101EEA00F00DB11DAA1F649F6627B00DA11D661FC4
:101EFA00829F2227B00DA11D621F739FB00DA11DE5
:101F0A00621F839FA00D611D221F749F3327A00D9E
:101F1A00611D231F849F600D211D822F762F6A2F3A
:101F2A0011249F5750409AF0F1F088234AF0EE0F9F
:101F3A00FF1FBB1F661F771F881F91505040A9F7CC
:101F4A009E3F510580F00C949E1C0C947C1C5F3FB4
:101F5A00E4F3983ED4F3869577956795B795F79508
:101F6A00E7959F5FC1F7FE2B880F911D9695879580
:041F7A0097F9089536
:101F7E00CF93DF93CDB7DEB7CD58D109CDBFDEBF3E
:101F8E009E0126573F4FF90180839183CE018457DE
:101F9E009F4FFC016083CE0183579F4FFC0140830E
:101FAE00CE0184579F4FFC018081883088F0CE018E
:101FBE0086579F4FFC018081918149E89E012F5FDA
:101FCE003F4FF901DC0101900D924A95E1F72CC0CB
:101FDE001F821886898587708862898789858C7F9C
:101FEE008987898584608987CE0183579F4FFC013D
:101FFE0080818A8781E090E08D839E8384E090E0EB
:10200E008B839C838FE18A83CE0186579F4FFC0181
:10201E008081918149E89E012F5F3F4FF901DC01DC
:10202E0001900D924A95E1F7CE0186579F4FFC0124
:10203E0080819181C357DF4FCDBFDEBFDF91CF913E
:02204E000895F3
:10205000CF93DF93CDB7DEB7000080E491E0FC01C1
:1020600081818823D1F780E491E0FC018189882374
:10207000A1F780E491E021E0FC012783000080E4E7
:1020800091E0FC0181818823D1F780E491E0FC019B
:1020900081898823A1F780E491E021E0FC01228B73
:1020A000000080E491E0FC0181818823D1F780E485
:1020B00091E0FC0181898823A1F780E491E020E48C
:1020C00031E0F90120892063FC01208B000080E4CD
:1020D00091E0FC0181818823D1F780E491E0FC014B
:1020E00081898823A1F780E491E020E431E0F901BF
:1020F00020892160FC01208B000080E491E0FC013C
:1021000081818823D1F780E491E0FC0181898823D3
:0A211000A1F70000DF91CF910895C0
:10211A00CF93DF931F92CDB7DEB79091464781E008
:10212A008927882309F050C0198249C08981282F3C
:10213A0030E049E8429FC001439F900D1124835328
:10214A00984BFC0180818823B9F18981282F30E0DE
:10215A0049E8429FC001439F900D11248C599E4F1C
:10216A008859994B8093EE589093EF588981282F7C
:10217A0030E049E8429FC001439F900D11249C0121
:10218A002453384B8DB79EB7895891098DBF9EBF8E
:10219A008DB79EB7019649E8F901DC0101900D92CD
:1021AA004A95E1F780E00E942A13EDB7FEB7E75798
:1021BA00FF4FCDBFDEBF09C089818F5F89838981C7
:1021CA00803108F4B3CF01C000000F90DF91CF91A6
:0221DA00089566
:1021DC00CF93DF93CDB7DEB7CF58D109CDBFDEBFDC
:1021EC009E0126573F4FF90180839183CE0184577E
:1021FC009F4FFC0140835183628373831F828FE066
:10220C00888789858770898789858C7F8987898567
:10221C0084608987CE0184579F4FFC0180818A8717
:10222C00CE0184579F4FFC0181818B87CE0184574F
:10223C009F4FFC0182818C87CE0184579F4FFC01FC
:10224C0083818D8784E090E08D839E8387E090E08E
:10225C008B839C8383E28A83CE0186579F4FFC013C
:10226C008081918149E89E012F5F3F4FF901DC018C
:10227C0001900D924A95E1F7CE0186579F4FFC01D4
:10228C0080819181C157DF4FCDBFDEBFDF91CF91F0
:02229C000895A3
:10229E00CF93DF93CDB7DEB7CF58D109CDBFDEBF19
:1022AE009E0126573F4FF90180839183CE018457BB
:1022BE009F4FFC0140835183628373831F8281E0B1
:1022CE00888789858770898789858C7F89878985A5
:1022DE0084608987CE0184579F4FFC0180818A8755
:1022EE00CE0184579F4FFC0181818B87CE0184578D
:1022FE009F4FFC0182818C87CE0184579F4FFC013A
:10230E0083818D8784E090E08D839E8387E090E0CB
:10231E008B839C8380E28A83CE0186579F4FFC017C
:10232E008081918149E89E012F5F3F4FF901DC01C9
:10233E0001900D924A95E1F7CE0186579F4FFC0111
:10234E0080819181C157DF4FCDBFDEBFDF91CF912D
:02235E000895E0
:10236000CF93DF93CDB7DEB7CF58D109CDBFDEBF56
:102370009E0126573F4FF90180839183CE018457F8
:102380009F4FFC0140835183628373831F8285E0EA
:10239000888789858770898789858C7F89878985E2
:1023A00084608987CE0184579F4FFC0180818A8792
:1023B000CE0184579F4FFC0181818B87CE018457CA
:1023C0009F4FFC0182818C87CE0184579F4FFC0177
:1023D00083818D8784E090E08D839E8387E090E009
:1023E0008B839C8381E28A83CE0186579F4FFC01B9
:1023F0008081918149E89E012F5F3F4FF901DC0107
:1024000001900D924A95E1F7CE0186579F4FFC014E
:1024100080819181C157DF4FCDBFDEBFDF91CF916A
:0224200008951D
:10242200CF93DF93CDB7DEB7CC58D109CDBFDEBF96
:102432009E0126573F4FF90180839183CE01845735
:102442009F4FFC016083CE0184579F4FFC01808126
:10245200883088F0CE0186579F4FFC0180819181A0
:1024620049E89E012F5F3F4FF901DC0101900D9277
:102472004A95E1F727C01F8288E28887898587709D
:102482008862898789858C7F898789858B7F8987FF
:1024920084E090E08D839E8387E090E08B839C8331
:1024A20080E58A83CE0186579F4FFC01808191810E
:1024B20049E89E012F5F3F4FF901DC0101900D9227
:1024C2004A95E1F7CE0186579F4FFC0180819181A9
:0E24D200C457DF4FCDBFDEBFDF91CF9108951D
:1024E000CF93DF93CDB7DEB7CC58D109CDBFDEBFD8
:1024F0009E0126573F4FF90180839183CE01845777
:102500009F4FFC016083CE0184579F4FFC01808167
:10251000883088F0CE0186579F4FFC0180819181E1
:1025200049E89E012F5F3F4FF901DC0101900D92B8
:102530004A95E1F727C01F8282E2888789858770E4
:102540008862898789858C7F898789858B7F898740
:1025500084E090E08D839E8387E090E08B839C8372
:1025600081E58A83CE0186579F4FFC01808191814E
:1025700049E89E012F5F3F4FF901DC0101900D9268
:102580004A95E1F7CE0186579F4FFC0180819181EA
:0E259000C457DF4FCDBFDEBFDF91CF9108955E
:10259E00CF93DF93CDB7DEB7C451D140CDBFDEBFF1
:1025AE0000009091384681E089278823D1F781E099
:1025BE008983CE0185579F4FFC012081207F2160AA
:1025CE00FC0120839E0124573F4FCE0185579F4F1C
:1025DE00FC0140816981C9010E94BF0FCE01845761
:1025EE009F4F29E8FC01DE01129601900D922A956B
:1025FE00E1F7CE0102960E94AC19CE0184579F4F8F
:10260E0041E069810E94EB0ECE0184579F4F29E86D
:10261E00FC01DE01129601900D922A95E1F7CE0192
:10262E0002960E94AC198981882F90E08859994BA7
:10263E0021E0FC0120830000CC5EDE4FCDBFDEBF6B
:06264E00DF91CF91089519
:10265400CF93DF931F92CDB7DEB78983909146471E
:1026640081E08927882319F080E090E03AC08981CD
:10267400883018F08FEF9FEF34C0109246471092C5
:10268400C14628853985CE010C96CC01A0E8AA2F35
:10269400AC016A2F87E497E40E94B11B1092C747EC
:1026A4001092C847888599858093C9479093CA47F3
:1026B40010924247109243478091C9479091CA476C
:1026C400809344479093454780E094E020E8FC01E0
:1026D400268380E499E020914747FC01248380E02D
:0A26E40090E00F90DF91CF91089570
:1026EE000F931F93CF93DF9300D0CDB7DEB782E069
:1026FE0090E1FC018081882F90E082709927892BD0
:10270E00B1F719821A821FC089819A818C01045CEB
:10271E00194B89819A81CC01A0E8AA2FBC018A2F7E
:10272E000E94721CF801808382E090E1FC0180819E
:10273E00882F90E082709927892BB1F789819A8131
:10274E00019689839A8389819A818C97E8F282E037
:10275E0090E1FC018081882F90E082709927892B6F
:10276E00B1F700000F900F90DF91CF911F910F9155
:02277E000895BC
:10278000CF93DF93CDB7DEB7CB58D109CDBFDEBF36
:102790009E0126573F4FF901808391831F8289E074
:1027A000888789858770898789858C7F89878985CE
:1027B0008B7F89871A861B861C861D861E861F8630
:1027C00086E090E08D839E8389E090E08B839C83FC
:1027D00082E38A83CE0186579F4FFC0180819181DD
:1027E00049E89E012F5F3F4FF901DC0101900D92F6
:1027F0004A95E1F7CE0186579F4FFC018081918178
:0E280000C557DF4FCDBFDEBFDF91CF910895EA
:10280E00CF93DF93CDB7DEB7CB58D109CDBFDEBFA7
:10281E009E0126573F4FF901808391831F828FE0DF
:10282E00888789858770898789858C7F898789853F
:10283E008B7F89871A861B861C861D8684E090E016
:10284E008D839E8387E090E08B839C8383E38A83D2
:10285E00CE0186579F4FFC018081918149E89E01F0
:10286E002F5F3F4FF901DC0101900D924A95E1F780
:10287E00CE0186579F4FFC0180819181C557DF4F56
:0A288E00CDBFDEBFDF91CF910895AA
:10289800CF93DF93CDB7DEB7CB58D109CDBFDEBF1D
:1028A8009E0126573F4FF901808391831F8281E063
:1028B800888789858770898789858C7F89878985B5
:1028C8008B7F89871A861B861C861D8684E090E08C
:1028D8008D839E8387E090E08B839C8380E38A834B
:1028E800CE0186579F4FFC018081918149E89E0166
:1028F8002F5F3F4FF901DC0101900D924A95E1F7F6
:10290800CE0186579F4FFC0180819181C557DF4FCB
:0A291800CDBFDEBFDF91CF9108951F
:10292200CF93DF93CDB7DEB7CB58D109CDBFDEBF92
:102932009E0126573F4FF901808391831F8285E0D4
:10294200888789858770898789858C7F898789852A
:102952008B7F89871A861B861C861D8684E090E001
:102962008D839E8387E090E08B839C8381E38A83BF
:10297200CE0186579F4FFC018081918149E89E01DB
:102982002F5F3F4FF901DC0101900D924A95E1F76B
:10299200CE0186579F4FFC0180819181C557DF4F41
:0A29A200CDBFDEBFDF91CF91089595
:1029AC00CF93DF9300D01F92CDB7DEB719822FC023
:1029BC008981282F30E049E8429FC001439F900D48
:1029CC0011248353984BFC0180818823E9F489817D
:1029DC00282F30E049E8429FC001439F900D1124FD
:1029EC008C599E4F8859994B8A839B832091C04662
:1029FC008A819B81FC0120838091C0468F5F8093EC
:102A0C00C0468A819B8108C089818F5F89838981B7
:102A1C00803170F280E090E02396CDBFDEBFDF9175
:042A2C00CF910895A9
:102A3000CF93DF9300D01F92CDB7DEB719822FC09E
:102A40008981282F30E049E8429FC001439F900DC3
:102A50001124835A9F4AFC0180818823E9F48981EB
:102A6000282F30E049E8429FC001439F900D112478
:102A70008C50964F8859994B8A839B832091C046EE
:102A80008A819B81FC0120838091C0468F5F809367
:102A9000C0468A819B8108C089818F5F8983898133
:102AA000803170F280E090E02396CDBFDEBFDF91F1
:042AB000CF91089525
:102AB400CF93DF93CDB7DEB7CB58D109CDBFDEBFFF
:102AC4009E0126573F4FF901808391831F8289E33A
:102AD400888789858770898789858C7F8987898597
:102AE4008B7F89871A8681E090E08D839E8384E0C2
:102AF40090E08B839C8381E08A83CE0186579F4F2D
:102B0400FC018081918149E89E012F5F3F4FF901CB
:102B1400DC0101900D924A95E1F7CE0186579F4F53
:102B2400FC0180819181C557DF4FCDBFDEBFDF91AE
:042B3400CF910895A0
:102B3800CF93DF93CDB7DEB72797CDBFDEBF8C83AA
:102B48009D836E837F8319828E819F8101972C815B
:102B58003D81820F931FFC0180818B831A820FC0F5
:102B68008A81882F90E02C813D81820F931FFC0180
:102B780080819981890F89838A818F5F8A838A817D
:102B8800282F30E08E819F8101972817390740F35D
:102B980099818B818927882F90E08F77992721E069
:102BA800892B09F020E0822F2796CDBFDEBFDF9169
:042BB800CF9108951C
:102BBC00CF93DF93CDB7DEB7F8940E94501C0E94E0
:102BCC001F1C0E9438020E9428100E944D170E9460
:102BDC005F050E944806789480913846882321F03E
:102BEC000E948D100E941C1680913946882331F06A
:102BFC000E9489170E945C1C10923946809169468C
:102C0C00843079F490917A4681E08927882331F4D5
:102C1C0090917B4681E08927882319F081E00E94FE
:0C2C2C00E9090E94A4180E945504D6CFAC
:102C3800CF93DF931F92CDB7DEB719822FC089815A
:102C4800282F30E049E8429FC001439F900D11248E
:102C5800835A9F4AFC0180818823E9F08981282FC3
:102C680030E049E8429FC001439F900D11248C50E9
:102C7800964F8859994B8093EC589093ED588091D2
:102C8800EC589091ED580E9453098091EC5890911E
:102C9800ED58FC01118289818F5F89838981803198
:0C2CA80070F200000F90DF91CF910895B2
:102CB4001F920F9200903F000F92112400903B004E
:102CC4000F922F933F934F935F936F937F938F93C1
:102CD4009F93AF93BF93EF93FF93CF93DF931F9291
:102CE400CDB7DEB781E0898389810E94EB0A80E653
:102CF40098E020E4FC01248300000F90DF91CF9141
:102D0400FF91EF91BF91AF919F918F917F916F91BF
:102D14005F914F913F912F910F9000923B000F9044
:0A2D240000923F000F901F901895D9
:102D2E001F920F9200903F000F92112400903B00D3
:102D3E000F922F933F934F935F936F937F938F9346
:102D4E009F93AF93BF93EF93FF93CF93DF931F9216
:102D5E00CDB7DEB782E0898389810E94EB0A80E8D5
:102D6E0098E020E4FC01248300000F90DF91CF91C6
:102D7E00FF91EF91BF91AF919F918F917F916F9145
:102D8E005F914F913F912F910F9000923B000F90CA
:0A2D9E0000923F000F901F9018955F
:102DA8001F920F9200903F000F92112400903B0059
:102DB8000F922F933F934F935F936F937F938F93CC
:102DC8009F93AF93BF93EF93FF93CF93DF931F929C
:102DD800CDB7DEB783E0898389810E94EB0A80EA58
:102DE80098E020E4FC01248300000F90DF91CF914C
:102DF800FF91EF91BF91AF919F918F917F916F91CB
:102E08005F914F913F912F910F9000923B000F904F
:0A2E180000923F000F901F901895E4
:102E22001F920F9200903F000F92112400903B00DE
:102E32000F922F933F934F935F936F937F938F9351
:102E42009F93AF93BF93EF93FF93CF93DF931F9221
:102E5200CDB7DEB7198289810E94EB0A80E298E041
:102E620020E4FC01248300000F90DF91CF91FF91B9
:102E7200EF91BF91AF919F918F917F916F915F91F0
:102E82004F913F912F910F9000923B000F90009233
:082E92003F000F901F901895FE
:102E9A00CF93DF93CDB7DEB780E694E023E0FC0161
:102EAA00268380E694E023E0FC01218380EE95E00E
:102EBA0023E0FC01268380E09AE0FC0110A611A61B
:102ECA0080E09AE0FC0112A613A680E09AE0FC01D9
:102EDA0014A615A680E09AE023E7FC01218380E08E
:102EEA009AE020E031E0FC0126A337A380E09AE0D3
:102EFA0021E0FC01208380E09AE021E0FC012687A2
:082F0A000000DF91CF91089552
:102F1200CF93DF9300D0CDB7DEB781E0898329C09C
:102F22008981882F90E08859994BFC0180818A839E
:102F32008A81882F90E081309105B9F08230910525
:102F42001CF4892B39F012C08230910531F00497BC
:102F520041F00CC00E94CF1209C081E00E942907F3
:102F620005C081E00E94E90901C0000089818F5FEC
:102F7200898389818230A0F200000F900F90DF9147
:042F8200CF9108954E
:102F8600CF93DF93CDB7DEB7CA58D109CDBFDEBF29
:102F96009E0126573F4FF9018083CE0186579F4FEA
:102FA600FC0180818830E8F41F8283E08887898568
:102FB60087708862898789858C7F898789858B7FD9
:102FC60089871A8681E090E08D839E8384E090E075
:102FD6008B839C8383E08A83CE0101960E94AC1981
:102FE60001C00000C657DF4FCDBFDEBFDF91CF91D6
:022FF60008953C
:102FF8001F920F9200903F000F92112400903B0007
:103008000F922F933F934F935F936F937F938F9379
:103018009F93AF93BF93EF93FF93CF93DF931F9249
:10302800CDB7DEB781E0898389810E94F607000069
:103038000F90DF91CF91FF91EF91BF91AF919F9149
:103048008F917F916F915F914F913F912F910F9049
:1030580000923B000F9000923F000F901F90189530
:103068001F920F9200903F000F92112400903B0096
:103078000F922F933F934F935F936F937F938F9309
:103088009F93AF93BF93EF93FF93CF93DF931F92D9
:10309800CDB7DEB782E0898389810E94F6070000F8
:1030A8000F90DF91CF91FF91EF91BF91AF919F91D9
:1030B8008F917F916F915F914F913F912F910F90D9
:1030C80000923B000F9000923F000F901F901895C0
:1030D8001F920F9200903F000F92112400903B0026
:1030E8000F922F933F934F935F936F937F938F9399
:1030F8009F93AF93BF93EF93FF93CF93DF931F9269
:10310800CDB7DEB783E0898389810E94F607000086
:103118000F90DF91CF91FF91EF91BF91AF919F9168
:103128008F917F916F915F914F913F912F910F9068
:1031380000923B000F9000923F000F901F9018954F
:10314800CF93DF931F92CDB7DEB7198228C089814C
:10315800482F50E02EE831E0429FC001439F900D78
:10316800529F900D11248D5F9F4BFC018081882315
:1031780099F089810E94A5088981482F50E02EE89E
:1031880031E0429FC001439F900D529F900D112442
:103198008D5F9F4BFC01108289818F5F89838981B4
:0E31A8008430A8F200000F90DF91CF910895BF
:1031B6001F920F9200903F000F92112400903B0047
:1031C6000F922F933F934F935F936F937F938F93BA
:1031D6009F93AF93BF93EF93FF93CF93DF931F928A
:1031E600CDB7DEB7198289810E94F60700000F90DD
:1031F600DF91CF91FF91EF91BF91AF919F918F9109
:103206007F916F915F914F913F912F910F90009217
:0E3216003B000F9000923F000F901F90189504
:10322400CF93DF93CDB7DEB72797CDBFDEBF8B83B8
:103234006C837D834E835F838B81883018F08FEF9E
:103244009FEF1DC019821A8211C02C813D81898192
:103254009A81820F931F20E439E0F9012481FC0153
:10326400208389819A81019689839A8329813A816D
:103274008E819F812817390740F38E819F8127967D
:0A328400CDBFDEBFDF91CF910895AA
:10328E00CF93DF9300D0CDB7DEB789836A838A816F
:10329E00882F90E08331910531F08731910561F0EF
:1032AE00892B99F01AC08981882F90E08859994B03
:1032BE0022E0FC01208311C08981882F90E088597B
:1032CE00994B24E0FC01208308C08981882F90E06F
:1032DE008859994BFC011082000000000F900F904E
:0632EE00DF91CF9108956D
:1032F400CF93DF9300D0CDB7DEB789839A838981DA
:103304009A81FC011482158289819A81FC011282BE
:10331400138289819A81FC01108289819A81FC013E
:10332400118289819A81099640E850E060E070E05A
:103334000E94901C89819A81FC01168217828981DE
:103344009A81FC01108689819A810F900F90DF91F8
:04335400CF91089578
:10335800CF93DF9300D000D0CDB7DEB78B839C83AB
:103368000E94D61489839A8389819A81892B19F4BA
:1033780080E090E017C089819A81FC0120818B81CF
:103388009C81FC0120838B819C81CC01A0E8AA2F21
:10339800AC016A2F89819A8129E830E00E94B11B2B
:1033A80089819A812496CDBFDEBFDF91CF910895A0
:1033B800CF93DF93CDB7DEB7CB58D109CDBFDEBFF2
:1033C8009E0125573F4FF9018083CE0185579F4FB6
:1033D800FC018081883098F481E089839E012E5F0A
:1033E8003F4FCE0185579F4F4981FC016081C9013C
:1033F8000E94EB0ECE0102960E94AC1901C000009B
:0E340800C557DF4FCDBFDEBFDF91CF910895D6
:10341600CF93DF93CDB7DEB7CB58D109CDBFDEBF93
:103426009E0125573F4FF9018083CE0185579F4F57
:10343600FC018081883098F480E189839E012E5FAB
:103446003F4FCE0185579F4F4981FC016081C901DD
:103456000E94EB0ECE0102960E94AC1901C000003C
:0E346600C557DF4FCDBFDEBFDF91CF91089578
:103474000E94601B88F09F5798F0B92F9927B75185
:10348400B0F0E1F0660F771F881F991F1AF0BA9504
:10349400C9F714C0B13091F00E947B1CB1E00895CB
:1034A4000C947B1C672F782F8827B85F39F0B93FBD
:1034B400CCF3869577956795B395D9F73EF49095B7
:0E34C4008095709561957F4F8F4F9F4F0895B3
:1034D2001F920F9200903F000F92112400903B0028
:1034E2000F928F939F93EF93FF93CF93DF931F924C
:1034F200CDB7DEB7198280EC94E0FC018185882388
:103502001CF489818F5F898300000F90DF91CF9136
:10351200FF91EF919F918F910F9000923B000F903E
:0A35220000923F000F901F901895D3
:10352C00CF93DF93CDB7DEB72697CDBFDEBF8B83AE
:10353C009C836D837E8319821A820FC08A81882FA7
:10354C0090E02B813C81820F931FFC01808199813B
:10355C00890F89838A818F5F8A838A81282F30E043
:10356C008D819E812817390748F389812696CDBF16
:08357C00DEBFDF91CF9108953D
:103584001F920F9200903F000F92112400903B0075
:103594000F922F938F939F93EF93FF93CF93DF9388
:1035A400CDB7DEB780E098E020E4FC01248300007E
:1035B400DF91CF91FF91EF919F918F912F910F9078
:1035C40000923B000F9000923F000F901F901895BF
:1035D400CF93DF9300D000D0CDB7DEB78B836C835D
:1035E40019821A828C81882F90E089839A838B8137
:1035F400882F90E09695982F8827979587959C011A
:1036040089819A81820F931F89839A8389819A8100
:0C3614002496CDBFDEBFDF91CF9108955A
:10362000CF93DF93CDB7DEB72597CDBFDEBF8B83BA
:103630009C836D838D81823010F080E00FC08B8180
:103640009C8189839A838D81882311F48A8106C0A5
:103650008D81813011F4898101C080E02596CDBF34
:08366000DEBFDF91CF91089558
:10366800990F0008550FAA0BE0E8FEEF161617068B
:10367800E807F907C0F012161306E407F50798F0F3
:10368800621B730B840B950B39F40A2661F0232B0C
:10369800242B252B21F408950A2609F4A140A69588
:0836A8008FEF811D811D0895C3
:1036B00057FD9058440F551F59F05F3F71F04795E3
:1036C000880F97FB991F61F09F3F79F087950895C8
:1036D000121613061406551FF2CF4695F1DF08C0E7
:1036E000161617061806991FF1CF86957105610504
:0436F000089408959D
:1036F400CF93DF93CDB7DEB72697CDBFDEBF8C83E4
:103704006D834E836D818C810E94EA1A89839A832A
:1037140089819A816E810E94101B8B838B812696EE
:0A372400CDBFDEBFDF91CF91089505
:10372E00CF93DF93CDB7DEB72597CDBFDEBF8983AD
:10373E006A837B834C835D838981883018F08FEF99
:10374E009FEF02C080E090E02596CDBFDEBFDF91F7
:04375E00CF9108956A
:10376200CF92DF92EF92DC016A01E62E280F391F19
:10377200A217B30751F0F6015E2D0E94971C6D93BC
:103782004FEFC41AD40AE40AF3CFEF90DF90CF9040
:02379200089598
:10379400CF93DF93CDB7DEB79091C14681E08927FF
:1037A400882311F080E009C09091464781E0892781
:1037B400882311F080E001C081E0DF91CF9108956A
:1037C400CF93DF93CDB7DEB748E852E160E070E015
:1037D40088E696E40E94901C81E08093C14681E0D3
:0C37E400809346470000DF91CF910895CC
:1037F000CF93DF9300D000D0CDB7DEB78B836C833F
:103800008C8189838B818A8389819A812496CDBF1B
:08381000DEBFDF91CF910895A6
:103818001F920F9200903F000F921124CF93DF93D5
:10382800CDB7DEB70000DF91CF910F9000923F0037
:063838000F901F9018958F
:10383E00CF93DF93CDB7DEB780E690E020E8FC01B2
:10384E00208380E690E024E2FC0120870000DF91D7
:04385E00CF91089569
:10386200092E0394000C11F4882352F0BB0F40F48C
:10387200BF2B11F460FF04C06F5F7F4F8F4F9F4FCC
:023882000895A7
:10388400CF93DF9300D0CDB7DEB789839A8380E0EE
:0C38940090E00F900F90DF91CF9108950D
:1038A000CF93DF93CDB7DEB71092C0460E94771357
:0838B0000000DF91CF910895A3
:1038B800CF93DF93CDB7DEB781E00E94C317000036
:0638C800DF91CF9108958D
:1038CE00CF93DF931F92CDB7DEB7898380E00F9041
:0638DE00DF91CF91089577
:1038E400CB0103D0808199270895FC01E050FC4E60
:0238F400089535
:0E38F600E894BB2766277727CB0197F9089542
:0E39040000240A9416161706180609060895E0
:0E39120000240A9412161306140605060895E2
:0E392000DC0101C06D9341505040E0F7089566
:0E392E0057FD03C05BBF679108956081089547
:0C393C0097F99F6780E870E060E0089554
:0A3948000E94341B08F481E008958A
:0A3952000E94341B08F48FEF089563
:08395C000E94550F0C94311C70
:063964009FEF80EC0895C6
:04396A000C940000B9
:08396E00220862088208A20889
:08397600200860088008A00889
:06397E000008DC01020359
:00000001FF
